:020000001628C0
:0E0006008312031331088A00300882000800BC
:1000140003208A110A128000840AB00A0319B10A63
:08002400F003031D0A28080087
:10002C0083120313A0013C30A1002030A200203029
:10003C00A3003C30A4002030A5002030A6003C30AA
:10004C00A7008030A8004030A9002030AA00103052
:10005C00AB000830AC000430AD000230AE00013013
:10006C00AF008316860188018312B201B301803080
:10007C003306F00080307002031D4628083032022F
:10008C0003188F28B401B50180303506F00080309C
:10009C007002031D53281E30340203188B28B6013E
:1000AC00B70180303706F00080307002031D6028E5
:1000BC0008303602031887283608283E84000008CA
:1000CC0088003608203E84000008F2003208F10057
:1000DC007208F000710803197728F00D7010FF3EBC
:1000EC007128700886000330FC009730FD00FD0B72
:1000FC007D28FC0B7D2800000000B60A0319B70A06
:10010C005728B40A0319B50A4A28B20A0319B30AC4
:10011C003D28B201B30180303306F000803070020C
:10012C00031D9A28083032020318E328B401B501E4
:10013C0080303506F00080307002031DA7281E3079
:10014C0034020318DF28B601B70180303706F000FF
:10015C0080307002031DB428083036020318DB28E7
:10016C003608283E8400000888003608203E8400AB
:10017C000008F2003208F1007208F000710803194F
:10018C00CB28F00CF013FF3EC52870088600033016
:10019C00FC009730FD00FD0BD128FC0BD128000092
:1001AC000000B60A0319B70AAB28B40A0319B50A3A
:1001BC009E28B20A0319B30A91280830FC00C930F2
:1001CC00FD00FD0BE728FC0BE728000000003A2897
:0201DC00EE280B
:02400E004A2F37
:00000001FF
