:02000000A52D2C
:06000600000000000800EC
:0E000C00213083120313FD00FD0B0A280800AB
:10001A000F3083120313FC004730FD00FD0B132839
:0A002A00FC0B132800000000080082
:10003400FB14FB1F2428FF30F300F200F100F00052
:08004400FA0DF20CFF30080078
:0E004C00F201F101F001F801F30100300800AB
:10005A007B15FB1F37280130F300F201F101F00193
:08006A00FA0DF20CFF30080052
:08007200FA1FF2130030080030
:10007A0083120313DE1B43288612442886165E1B4E
:10008A004828061249280616DE1A4D2886114E28D7
:10009A0086155E1A5228061153280615481857283D
:1000AA00061458280610861403208610DE195F28C5
:1000BA008612602886165E196428061265280616B6
:1000CA00DE18692886116A2886155E186E280611B8
:1000DA006F28061548187328061474280610861403
:1000EA0003208610481C7B280D207C280620080047
:1000FA00A0017208031D92287108F2007008F1002D
:10010A00F001A0157208031D92287108F200F1018E
:10011A00A011201672080319A0282008F302031D53
:10012A00031CA4280310F21BA828F00DF10DF20DF0
:10013A00F30B9828A4280130FC002620AB280230B3
:0E014A00FC002D20AB280430FC0039200800FA
:100158000E3083120313FD00FD0BB02800000800C9
:0E0168008312031343088A0042088200080035
:06017600FB15FF3008003C
:10017C00831203135C08F2007208F100F20A5D08A6
:10018C00F000DD0A700884000008F000710884009B
:10019C00700880007108840000080319D628C22852
:0601AC005C08F0000800F1
:1001B20083120313FA017308031D7A147708031DCF
:1001C200FA147A0803192529033A0319F0287A1830
:1001D200ED28F61F23292129F21F2129232972083C
:1001E2008039FA00F21376088039F6137A06031979
:1001F200FE287A0803192129232977087302031993
:100202000529031C19291D297608720203190C29D4
:10021200031C19291D297508710203191329031CCE
:1002220019291D29740870020319252903181D298B
:10023200FA08031923292129FA0803192129232954
:100242000314080003100800031403150800080033
:1002520083120313FB017308031D77080319802916
:1002620072087606FA007708F3077E30031C3D29F0
:10027200F302031883294029F302031C862972081A
:10028200F8007108FC007008FD00F817F61703105B
:10029200F201F101F0011830A0007D1C5A29740806
:1002A200F00775080318750FF10776080318760F23
:1002B200F207F20CF10CF00CF80CFC0CFD0C031024
:1002C200A00B4E29F21B6A29F80DF00DF10DF20D6B
:1002D200F3037B1B701C7C29F81F7C29F00A03198D
:1002E200F10A0319F20A031D7C29F20CF10CF00C3D
:1002F200F30A03198329FA1FF21300308829013007
:100302002620882902301A20882904302D20000056
:020312000800E1
:1003140083120313FD01F8017008031900347406F5
:10032400FA00FA1BFD09FB01F41F9A29F409F40AE7
:10033400F01F9E29F009F00A70087404FA00FA1BF1
:10034400C2297408F802F00D700DF80D7408F8074E
:10035400F00D0630FC00700DF80D74087018F802EA
:10036400701CF807F00DFC0BAD29701CF8077B1806
:10037400D029FD1F0034F009F00AF809F80A003406
:10038400F41FCD29F01BCA297008F800F001BB291D
:10039400F001F00A0034F009FB0AA329F80A7408F2
:1003A4007802031DBB29F801F00AF01FBB29FF34B2
:0203B40008003F
:1003B6008312031348105C08DE003D204814080031
:1003C600F529803083120313CF00082AC030CF00EE
:1003D600082A9430CF00082AD430CF00082A80306B
:1003E600CF00082A831203134F08013A0319E429A0
:1003F6004F08023A0319E9294F08033A0319EC2971
:100406004F08043A0319EF29F2295003F0004F0868
:10041600F0077008CF007008DE003D204810D201BA
:1004260052085107840000080319212A520851076F
:1004360084000008DC00DB21D20A132A48140800D5
:10044600831203137408003A031D3E2A7508003A06
:10045600031D3E2A7608003A031D3E2A7708003A15
:10046600031D3E2AFF30F000FF30F1007F30F2001E
:10047600FF30F300D92A8312031377080319CD2A14
:1004860073080319D02A720876068039FA00F21723
:10049600F617A0017208F8007108FC007008FD004C
:1004A6007408FD027508031C750FFC027608031C10
:1004B600760FF802F801FC01FD01031C692A0310FE
:1004C600F20CF10CF00CF80C0130A0007708F302E6
:1004D600031C732A7E302007F3070318D32A782AD1
:1004E6007E302007F307031CD62A1830FA07FD0DC5
:1004F600FC0DF80DF00DF10DF20DA00D7408F002D3
:100506007508031C750FF1027608031C760FF202BC
:10051600760DA004201C912A7D149C2A7408F007ED
:1005260075080318750FF10776080318760AF2079F
:100536007D10FA031F307A05031D7A2A7B1B7D1C6A
:10054600C32A0310F00DF10DF20DA00D7408F00290
:100556007508031C750FF1027608031C760FF2026C
:10056600760D20040139FD070318FC0A0319F80A61
:10057600031DC32AF80CFC0CFD0CF30A0319D32A3D
:10058600FA1FF8137808F2007C08F1007D08F000E5
:100596000030D82A0130BB20D82A02302620D82A9B
:0E05A60004301A20D82A08302D20000008004A
:1005B40083120313DA01DB014F08D6005008D70079
:1005C4005108D8005208D9005908FF3A031DF42AEB
:1005D4005808FF3A031DF42A5708FF3A031DF42A6A
:1005E4005608FF3A031DFE2A5308DC003830DD00AC
:1005F400BE200330F000D72C0130D400D81F0D2BBF
:1006040080305806F0007008D800D40A53088400DB
:100614002D308000D30A0030F0005906031D1C2B36
:1006240070085806031D1C2B70085706031D1C2B4D
:100634005608003A031D252B5308DC004030DD002A
:10064400BE20F001D72C5908FF3A031D332B58085C
:10065400003A031D332B5708003A031D332B560869
:10066400003A031D3D2B5308DC003C30DD00BE2066
:100674005408F000D72C0030F4000030F5000030AE
:10068400F6007F30F7005608F0005708F1005808CC
:10069400F2005908F300D920013003180030F000AB
:1006A40070080319702B5608F0005708F100580819
:1006B400F2005908F3000030F4000030F500203057
:1006C400F6008230F70029217008D6007108D7009F
:1006D4007208D8007308D900DB033D2B0030F40006
:1006E4000030F5002030F6008230F7005608F000A4
:1006F4005708F1005808F2005908F300D9200130D6
:10070400031C0030F00070080319A32B5608F000F6
:100714005708F1005808F2005908F300CD30F400EE
:10072400CC30F5004C30F6007B30F70029217008FE
:10073400D6007108D7007208D8007308D900DB0A04
:10074400702BFF305605F800FF305705F9007F3055
:100754005805FA0000305905FB007808F4007908C0
:10076400F5007A08F6007B08F700F40DF50DF60D98
:10077400F70D741000305605F00000305705F100F5
:1007840000305805F200FF305905F3007008D60018
:100794007108D7007208D8007308D9007408560489
:1007A400F00075085704F10076085804F200770841
:1007B4005904F3007008D6007108D7007208D800F5
:1007C4007308D9007F305902F0007008D500013059
:1007D400D9007008F4005608F0005708F1005808D2
:1007E400F2005908F30074080319FF2BF00DF10D02
:1007F400F20DF30D7010FF3EF62B7008D600710851
:10080400D7007208D8007308D9005908303EF000A8
:100814005308840070088000D30A80305B06F0001F
:100824008030013A7002031C202C8030063AF0001C
:1008340080305B067002031C202C272C5308840094
:100844002E308000D30A0130DA000630D500550876
:10085400003A0319852CD9015608F0005708F10015
:100864005808F2005908F300F00DF10DF20DF30DE4
:100874007010F00DF10DF20DF30D70105608F00725
:1008840057080318570FF10758080318580FF207B1
:1008940059080318590FF3077008D6007108D700D8
:1008A4007208D8007308D9005608F0005708F10000
:1008B4005808F2005908F300F00DF10DF20DF30D94
:1008C40070107008D6007108D7007208D800730839
:1008D400D9005908303EF0005308840070088000A5
:1008E400D30A5A08003A031D832CDB035B08003A41
:1008F400031D832C530884002E308000D30A01305A
:10090400DA00D503292CFF30530784000008303A5D
:10091400031D8E2CD303852CFF305307840000085D
:100924002E3A031D962CD3035B08003A0319D32CEB
:100934005308840065308000D30A80305B06F000E1
:100944008030003A70020318AF2C530884002D3015
:100954008000D30A5B08003CDB005B08D5008030D4
:10096400093AF00080305B0670020318C52C0A3087
:10097400F4005508F0008A213030F0075308840051
:1009840070088000D30A0A30F4005508F0008A2168
:100994007808F0003030F0075308840070088000B5
:0C09A400D30A530884008001F001080011
:1009B000831203137008F8007108F000F101F201CE
:1009C000F301FB01FC019630F300FA017008F1001D
:0C09D0007808F000F801F2017D2008001A
:1009DC00B4208A110A128000840AC20A0319C30ABD
:0809EC00F003031DEE2C0800CE
:1009F400831203139F01C0309F043709F00070086D
:100A040083169F051F179F1783124F08F000F00DE0
:100A14007010F00D7010F00D701070089F041F140A
:100A2400AC201F151F1D182D0000142D1F101E08AB
:100A3400F100F00183161E08F0040030F1040800F0
:100A440083160313861006100611861106128612E9
:100A540083128610061086120612861106110D20C6
:100A64000D200D20861506158614032086100D20F2
:100A74008614032086100D208614032086100D2072
:100A840006118614032086100D2086140320861078
:100A9400861186168614032086100D2086120615EC
:100AA40086140320861006118614032086100D2058
:100AB40086140320861006158614032086100D2044
:100AC400061186140320861086160616861506154A
:0C0AD4008614032086100D204814080032
:100AE000822D803083120313CF00952DC030CF00AC
:100AF000952D9430CF00952DD430CF00952D80309A
:100B0000CF00952D831203134F08013A0319712D5D
:100B10004F08023A0319762D4F08033A0319792D2D
:100B20004F08043A03197C2D7F2D5003F0004F0825
:100B3000F0077008CF0048147008DE003D20481010
:0A0B40005108DE003D2048140800B3
:100B4A003026831603138601FF30850080309F000C
:100B5A0022250130DE003D200C30DE003D20CF0191
:100B6A00FA2470088312CD007108CE00D824F6301A
:100B7A00F4002830F5001C30F6008130F7002921F6
:100B8A007008C9007108CA007208CB007308CC004B
:100B9A000030F4000030F5002030F6008230F70013
:100BAA0023227008C4007108C5007208C6007308C1
:100BBA00C7000130CF000130D0002130D100E3213D
:100BCA004408CF004508D0004608D1004708D200A3
:100BDA002730D300DA220130CF000630D000273088
:100BEA00D100E3210130CF000F30D000DF30D10037
:100BFA0070250130CF001030D0002D30D100702583
:040C0A00B42D062ED1
:100C600021308400213083120313F0000C30C200C5
:080C70000630C300EE24080069
:0C0C1800543465346D3470343A340034C8
:100C24000034003400340034003400340034003420
:100C34000034003400340034003400340034003410
:020C44000F346B
:080C46004E3461344E340034D9
:080C4E0049344E3446340034F1
:040C56003034003402
:040C5A0046340034E8
:02400E004A2F37
:00000001FF
